{
  "contractName": "FadeToken",
  "abi": [
    {
      "inputs": [],
      "stateMutability": "nonpayable",
      "type": "constructor"
    },
    {
      "anonymous": false,
      "inputs": [
        {
          "indexed": true,
          "internalType": "address",
          "name": "owner",
          "type": "address"
        },
        {
          "indexed": true,
          "internalType": "address",
          "name": "spender",
          "type": "address"
        },
        {
          "indexed": false,
          "internalType": "uint256",
          "name": "value",
          "type": "uint256"
        }
      ],
      "name": "Approval",
      "type": "event"
    },
    {
      "anonymous": false,
      "inputs": [
        {
          "indexed": true,
          "internalType": "address",
          "name": "from",
          "type": "address"
        },
        {
          "indexed": true,
          "internalType": "address",
          "name": "to",
          "type": "address"
        },
        {
          "indexed": false,
          "internalType": "uint256",
          "name": "value",
          "type": "uint256"
        }
      ],
      "name": "Transfer",
      "type": "event"
    },
    {
      "inputs": [
        {
          "internalType": "address",
          "name": "",
          "type": "address"
        },
        {
          "internalType": "address",
          "name": "",
          "type": "address"
        }
      ],
      "name": "allowance",
      "outputs": [
        {
          "internalType": "uint256",
          "name": "",
          "type": "uint256"
        }
      ],
      "stateMutability": "view",
      "type": "function"
    },
    {
      "inputs": [
        {
          "internalType": "address",
          "name": "",
          "type": "address"
        }
      ],
      "name": "balanceOf",
      "outputs": [
        {
          "internalType": "uint256",
          "name": "",
          "type": "uint256"
        }
      ],
      "stateMutability": "view",
      "type": "function"
    },
    {
      "inputs": [],
      "name": "decimals",
      "outputs": [
        {
          "internalType": "uint8",
          "name": "",
          "type": "uint8"
        }
      ],
      "stateMutability": "view",
      "type": "function"
    },
    {
      "inputs": [],
      "name": "maxBalance",
      "outputs": [
        {
          "internalType": "uint256",
          "name": "",
          "type": "uint256"
        }
      ],
      "stateMutability": "view",
      "type": "function"
    },
    {
      "inputs": [],
      "name": "name",
      "outputs": [
        {
          "internalType": "string",
          "name": "",
          "type": "string"
        }
      ],
      "stateMutability": "view",
      "type": "function"
    },
    {
      "inputs": [],
      "name": "symbol",
      "outputs": [
        {
          "internalType": "string",
          "name": "",
          "type": "string"
        }
      ],
      "stateMutability": "view",
      "type": "function"
    },
    {
      "inputs": [],
      "name": "totalSupply",
      "outputs": [
        {
          "internalType": "uint256",
          "name": "",
          "type": "uint256"
        }
      ],
      "stateMutability": "view",
      "type": "function"
    },
    {
      "inputs": [
        {
          "internalType": "address",
          "name": "to",
          "type": "address"
        },
        {
          "internalType": "uint256",
          "name": "value",
          "type": "uint256"
        }
      ],
      "name": "transfer",
      "outputs": [
        {
          "internalType": "bool",
          "name": "success",
          "type": "bool"
        }
      ],
      "stateMutability": "nonpayable",
      "type": "function"
    },
    {
      "inputs": [
        {
          "internalType": "address",
          "name": "from",
          "type": "address"
        },
        {
          "internalType": "address",
          "name": "to",
          "type": "address"
        },
        {
          "internalType": "uint256",
          "name": "value",
          "type": "uint256"
        }
      ],
      "name": "transferFrom",
      "outputs": [
        {
          "internalType": "bool",
          "name": "success",
          "type": "bool"
        }
      ],
      "stateMutability": "nonpayable",
      "type": "function"
    },
    {
      "inputs": [
        {
          "internalType": "address",
          "name": "spender",
          "type": "address"
        },
        {
          "internalType": "uint256",
          "name": "value",
          "type": "uint256"
        }
      ],
      "name": "approve",
      "outputs": [
        {
          "internalType": "bool",
          "name": "success",
          "type": "bool"
        }
      ],
      "stateMutability": "nonpayable",
      "type": "function"
    },
    {
      "inputs": [
        {
          "internalType": "address",
          "name": "spender",
          "type": "address"
        },
        {
          "internalType": "uint256",
          "name": "addedValue",
          "type": "uint256"
        }
      ],
      "name": "increaseAllowance",
      "outputs": [
        {
          "internalType": "bool",
          "name": "",
          "type": "bool"
        }
      ],
      "stateMutability": "nonpayable",
      "type": "function"
    },
    {
      "inputs": [
        {
          "internalType": "address",
          "name": "spender",
          "type": "address"
        },
        {
          "internalType": "uint256",
          "name": "subtractedValue",
          "type": "uint256"
        }
      ],
      "name": "decreaseAllowance",
      "outputs": [
        {
          "internalType": "bool",
          "name": "",
          "type": "bool"
        }
      ],
      "stateMutability": "nonpayable",
      "type": "function"
    }
  ],
  "bytecode": "0x60806040526040518060400160405280600481526020017f4661646500000000000000000000000000000000000000000000000000000000815250600090816200004a9190620003db565b506040518060400160405280600581526020017f244641444500000000000000000000000000000000000000000000000000000081525060019081620000919190620003db565b506012600260006101000a81548160ff021916908360ff160217905550600260009054906101000a900460ff1660ff16600a620000cf919062000645565b641010b87200620000e1919062000696565b6003556103e8604b600354620000f8919062000696565b62000104919062000710565b6004553480156200011457600080fd5b50600354600560003373ffffffffffffffffffffffffffffffffffffffff1673ffffffffffffffffffffffffffffffffffffffff1681526020019081526020016000208190555062000748565b600081519050919050565b7f4e487b7100000000000000000000000000000000000000000000000000000000600052604160045260246000fd5b7f4e487b7100000000000000000000000000000000000000000000000000000000600052602260045260246000fd5b60006002820490506001821680620001e357607f821691505b602082108103620001f957620001f86200019b565b5b50919050565b60008190508160005260206000209050919050565b60006020601f8301049050919050565b600082821b905092915050565b600060088302620002637fffffffffffffffffffffffffffffffffffffffffffffffffffffffffffffffff8262000224565b6200026f868362000224565b95508019841693508086168417925050509392505050565b6000819050919050565b6000819050919050565b6000620002bc620002b6620002b08462000287565b62000291565b62000287565b9050919050565b6000819050919050565b620002d8836200029b565b620002f0620002e782620002c3565b84845462000231565b825550505050565b600090565b62000307620002f8565b62000314818484620002cd565b505050565b5b818110156200033c5762000330600082620002fd565b6001810190506200031a565b5050565b601f8211156200038b576200035581620001ff565b620003608462000214565b8101602085101562000370578190505b620003886200037f8562000214565b83018262000319565b50505b505050565b600082821c905092915050565b6000620003b06000198460080262000390565b1980831691505092915050565b6000620003cb83836200039d565b9150826002028217905092915050565b620003e68262000161565b67ffffffffffffffff8111156200040257620004016200016c565b5b6200040e8254620001ca565b6200041b82828562000340565b600060209050601f8311600181146200045357600084156200043e578287015190505b6200044a8582620003bd565b865550620004ba565b601f1984166200046386620001ff565b60005b828110156200048d5784890151825560018201915060208501945060208101905062000466565b86831015620004ad5784890151620004a9601f8916826200039d565b8355505b6001600288020188555050505b505050505050565b7f4e487b7100000000000000000000000000000000000000000000000000000000600052601160045260246000fd5b60008160011c9050919050565b6000808291508390505b60018511156200055057808604811115620005285762000527620004c2565b5b6001851615620005385780820291505b80810290506200054885620004f1565b945062000508565b94509492505050565b6000826200056b57600190506200063e565b816200057b57600090506200063e565b81600181146200059457600281146200059f57620005d5565b60019150506200063e565b60ff841115620005b457620005b3620004c2565b5b8360020a915084821115620005ce57620005cd620004c2565b5b506200063e565b5060208310610133831016604e8410600b84101617156200060f5782820a905083811115620006095762000608620004c2565b5b6200063e565b6200061e8484846001620004fe565b92509050818404811115620006385762000637620004c2565b5b81810290505b9392505050565b6000620006528262000287565b91506200065f8362000287565b92506200068e7fffffffffffffffffffffffffffffffffffffffffffffffffffffffffffffffff848462000559565b905092915050565b6000620006a38262000287565b9150620006b08362000287565b9250828202620006c08162000287565b91508282048414831517620006da57620006d9620004c2565b5b5092915050565b7f4e487b7100000000000000000000000000000000000000000000000000000000600052601260045260246000fd5b60006200071d8262000287565b91506200072a8362000287565b9250826200073d576200073c620006e1565b5b828204905092915050565b6111ff80620007586000396000f3fe608060405234801561001057600080fd5b50600436106100b45760003560e01c806370a082311161007157806370a08231146101a357806373ad468a146101d357806395d89b41146101f1578063a457c2d71461020f578063a9059cbb1461023f578063dd62ed3e1461026f576100b4565b806306fdde03146100b9578063095ea7b3146100d757806318160ddd1461010757806323b872dd14610125578063313ce567146101555780633950935114610173575b600080fd5b6100c161029f565b6040516100ce9190610dee565b60405180910390f35b6100f160048036038101906100ec9190610ea9565b61032d565b6040516100fe9190610f04565b60405180910390f35b61010f61041f565b60405161011c9190610f2e565b60405180910390f35b61013f600480360381019061013a9190610f49565b610425565b60405161014c9190610f04565b60405180910390f35b61015d610704565b60405161016a9190610fb8565b60405180910390f35b61018d60048036038101906101889190610ea9565b610717565b60405161019a9190610f04565b60405180910390f35b6101bd60048036038101906101b89190610fd3565b610897565b6040516101ca9190610f2e565b60405180910390f35b6101db6108af565b6040516101e89190610f2e565b60405180910390f35b6101f96108b5565b6040516102069190610dee565b60405180910390f35b61022960048036038101906102249190610ea9565b610943565b6040516102369190610f04565b60405180910390f35b61025960048036038101906102549190610ea9565b610b77565b6040516102669190610f04565b60405180910390f35b61028960048036038101906102849190611000565b610d39565b6040516102969190610f2e565b60405180910390f35b600080546102ac9061106f565b80601f01602080910402602001604051908101604052809291908181526020018280546102d89061106f565b80156103255780601f106102fa57610100808354040283529160200191610325565b820191906000526020600020905b81548152906001019060200180831161030857829003601f168201915b505050505081565b600081600660003373ffffffffffffffffffffffffffffffffffffffff1673ffffffffffffffffffffffffffffffffffffffff16815260200190815260200160002060008573ffffffffffffffffffffffffffffffffffffffff1673ffffffffffffffffffffffffffffffffffffffff168152602001908152602001600020819055508273ffffffffffffffffffffffffffffffffffffffff163373ffffffffffffffffffffffffffffffffffffffff167f8c5be1e5ebec7d5bd14f71427d1e84f3dd0314c0f7b2291e5b200ac8c7c3b9258460405161040d9190610f2e565b60405180910390a36001905092915050565b60035481565b6000600560008573ffffffffffffffffffffffffffffffffffffffff1673ffffffffffffffffffffffffffffffffffffffff1681526020019081526020016000205482111561047357600080fd5b600660008573ffffffffffffffffffffffffffffffffffffffff1673ffffffffffffffffffffffffffffffffffffffff16815260200190815260200160002060003373ffffffffffffffffffffffffffffffffffffffff1673ffffffffffffffffffffffffffffffffffffffff168152602001908152602001600020548211156104fc57600080fd5b60045482600560008673ffffffffffffffffffffffffffffffffffffffff1673ffffffffffffffffffffffffffffffffffffffff1681526020019081526020016000205461054a91906110cf565b111561055557600080fd5b81600560008673ffffffffffffffffffffffffffffffffffffffff1673ffffffffffffffffffffffffffffffffffffffff16815260200190815260200160002060008282546105a49190611103565b9250508190555081600560008573ffffffffffffffffffffffffffffffffffffffff1673ffffffffffffffffffffffffffffffffffffffff16815260200190815260200160002060008282546105fa91906110cf565b9250508190555081600660008673ffffffffffffffffffffffffffffffffffffffff1673ffffffffffffffffffffffffffffffffffffffff16815260200190815260200160002060003373ffffffffffffffffffffffffffffffffffffffff1673ffffffffffffffffffffffffffffffffffffffff168152602001908152602001600020600082825461068d9190611103565b925050819055508273ffffffffffffffffffffffffffffffffffffffff168473ffffffffffffffffffffffffffffffffffffffff167fddf252ad1be2c89b69c2b068fc378daa952ba7f163c4a11628f55a4df523b3ef846040516106f19190610f2e565b60405180910390a3600190509392505050565b600260009054906101000a900460ff1681565b600081600660003373ffffffffffffffffffffffffffffffffffffffff1673ffffffffffffffffffffffffffffffffffffffff16815260200190815260200160002060008573ffffffffffffffffffffffffffffffffffffffff1673ffffffffffffffffffffffffffffffffffffffff16815260200190815260200160002060008282546107a591906110cf565b925050819055508273ffffffffffffffffffffffffffffffffffffffff163373ffffffffffffffffffffffffffffffffffffffff167f8c5be1e5ebec7d5bd14f71427d1e84f3dd0314c0f7b2291e5b200ac8c7c3b925600660003373ffffffffffffffffffffffffffffffffffffffff1673ffffffffffffffffffffffffffffffffffffffff16815260200190815260200160002060008773ffffffffffffffffffffffffffffffffffffffff1673ffffffffffffffffffffffffffffffffffffffff168152602001908152602001600020546040516108859190610f2e565b60405180910390a36001905092915050565b60056020528060005260406000206000915090505481565b60045481565b600180546108c29061106f565b80601f01602080910402602001604051908101604052809291908181526020018280546108ee9061106f565b801561093b5780601f106109105761010080835404028352916020019161093b565b820191906000526020600020905b81548152906001019060200180831161091e57829003601f168201915b505050505081565b600080600660003373ffffffffffffffffffffffffffffffffffffffff1673ffffffffffffffffffffffffffffffffffffffff16815260200190815260200160002060008573ffffffffffffffffffffffffffffffffffffffff1673ffffffffffffffffffffffffffffffffffffffff16815260200190815260200160002054905082811015610a08576040517f08c379a00000000000000000000000000000000000000000000000000000000081526004016109ff906111a9565b60405180910390fd5b828103600660003373ffffffffffffffffffffffffffffffffffffffff1673ffffffffffffffffffffffffffffffffffffffff16815260200190815260200160002060008673ffffffffffffffffffffffffffffffffffffffff1673ffffffffffffffffffffffffffffffffffffffff168152602001908152602001600020819055508373ffffffffffffffffffffffffffffffffffffffff163373ffffffffffffffffffffffffffffffffffffffff167f8c5be1e5ebec7d5bd14f71427d1e84f3dd0314c0f7b2291e5b200ac8c7c3b925600660003373ffffffffffffffffffffffffffffffffffffffff1673ffffffffffffffffffffffffffffffffffffffff16815260200190815260200160002060008873ffffffffffffffffffffffffffffffffffffffff1673ffffffffffffffffffffffffffffffffffffffff16815260200190815260200160002054604051610b649190610f2e565b60405180910390a3600191505092915050565b600081600560003373ffffffffffffffffffffffffffffffffffffffff1673ffffffffffffffffffffffffffffffffffffffff168152602001908152602001600020541015610bc557600080fd5b60045482600560008673ffffffffffffffffffffffffffffffffffffffff1673ffffffffffffffffffffffffffffffffffffffff16815260200190815260200160002054610c1391906110cf565b1115610c1e57600080fd5b81600560003373ffffffffffffffffffffffffffffffffffffffff1673ffffffffffffffffffffffffffffffffffffffff1681526020019081526020016000206000828254610c6d9190611103565b9250508190555081600560008573ffffffffffffffffffffffffffffffffffffffff1673ffffffffffffffffffffffffffffffffffffffff1681526020019081526020016000206000828254610cc391906110cf565b925050819055508273ffffffffffffffffffffffffffffffffffffffff163373ffffffffffffffffffffffffffffffffffffffff167fddf252ad1be2c89b69c2b068fc378daa952ba7f163c4a11628f55a4df523b3ef84604051610d279190610f2e565b60405180910390a36001905092915050565b6006602052816000526040600020602052806000526040600020600091509150505481565b600081519050919050565b600082825260208201905092915050565b60005b83811015610d98578082015181840152602081019050610d7d565b60008484015250505050565b6000601f19601f8301169050919050565b6000610dc082610d5e565b610dca8185610d69565b9350610dda818560208601610d7a565b610de381610da4565b840191505092915050565b60006020820190508181036000830152610e088184610db5565b905092915050565b600080fd5b600073ffffffffffffffffffffffffffffffffffffffff82169050919050565b6000610e4082610e15565b9050919050565b610e5081610e35565b8114610e5b57600080fd5b50565b600081359050610e6d81610e47565b92915050565b6000819050919050565b610e8681610e73565b8114610e9157600080fd5b50565b600081359050610ea381610e7d565b92915050565b60008060408385031215610ec057610ebf610e10565b5b6000610ece85828601610e5e565b9250506020610edf85828601610e94565b9150509250929050565b60008115159050919050565b610efe81610ee9565b82525050565b6000602082019050610f196000830184610ef5565b92915050565b610f2881610e73565b82525050565b6000602082019050610f436000830184610f1f565b92915050565b600080600060608486031215610f6257610f61610e10565b5b6000610f7086828701610e5e565b9350506020610f8186828701610e5e565b9250506040610f9286828701610e94565b9150509250925092565b600060ff82169050919050565b610fb281610f9c565b82525050565b6000602082019050610fcd6000830184610fa9565b92915050565b600060208284031215610fe957610fe8610e10565b5b6000610ff784828501610e5e565b91505092915050565b6000806040838503121561101757611016610e10565b5b600061102585828601610e5e565b925050602061103685828601610e5e565b9150509250929050565b7f4e487b7100000000000000000000000000000000000000000000000000000000600052602260045260246000fd5b6000600282049050600182168061108757607f821691505b60208210810361109a57611099611040565b5b50919050565b7f4e487b7100000000000000000000000000000000000000000000000000000000600052601160045260246000fd5b60006110da82610e73565b91506110e583610e73565b92508282019050808211156110fd576110fc6110a0565b5b92915050565b600061110e82610e73565b915061111983610e73565b9250828203905081811115611131576111306110a0565b5b92915050565b7f45524332303a2064656372656173656420616c6c6f77616e63652062656c6f7760008201527f207a65726f000000000000000000000000000000000000000000000000000000602082015250565b6000611193602583610d69565b915061119e82611137565b604082019050919050565b600060208201905081810360008301526111c281611186565b905091905056fea26469706673582212201c58c414d0f4e2bd0b6c0ef011c198d65a7fb78074d8ad8e33f54817a90fb8ef64736f6c63430008130033",
  "immutableReferences": {},
  "source": "pragma solidity ^0.8.0;\r\n\r\ncontract FadeToken {\r\n    string public name = \"Fade\";\r\n    string public symbol = \"$FADE\";\r\n    uint8 public decimals = 18;\r\n    uint256 public totalSupply = 69000000000 * 10**uint256(decimals);\r\n    uint256 public maxBalance = totalSupply * 75 / 1000; // 7.5% of total supply\r\n\r\n    mapping(address => uint256) public balanceOf;\r\n    mapping(address => mapping(address => uint256)) public allowance;\r\n\r\n    event Transfer(address indexed from, address indexed to, uint256 value);\r\n    event Approval(address indexed owner, address indexed spender, uint256 value);\r\n\r\n    constructor() {\r\n        balanceOf[msg.sender] = totalSupply;\r\n    }\r\n\r\n    function transfer(address to, uint256 value) public returns (bool success) {\r\n        require(balanceOf[msg.sender] >= value);\r\n        require(balanceOf[to] + value <= maxBalance); // check if receiver's balance will not exceed max limit\r\n        balanceOf[msg.sender] -= value;\r\n        balanceOf[to] += value;\r\n        emit Transfer(msg.sender, to, value);\r\n        return true;\r\n    }\r\n\r\n    function transferFrom(address from, address to, uint256 value) public returns (bool success) {\r\n        require(value <= balanceOf[from]);\r\n        require(value <= allowance[from][msg.sender]);\r\n        require(balanceOf[to] + value <= maxBalance); // check if receiver's balance will not exceed max limit\r\n        balanceOf[from] -= value;\r\n        balanceOf[to] += value;\r\n        allowance[from][msg.sender] -= value;\r\n        emit Transfer(from, to, value);\r\n        return true;\r\n    }\r\n\r\n    function approve(address spender, uint256 value) public returns (bool success) {\r\n        allowance[msg.sender][spender] = value;\r\n        emit Approval(msg.sender, spender, value);\r\n        return true;\r\n    }\r\n\r\n    function increaseAllowance(address spender, uint256 addedValue) public returns (bool) {\r\n        allowance[msg.sender][spender] += addedValue;\r\n        emit Approval(msg.sender, spender, allowance[msg.sender][spender]);\r\n        return true;\r\n    }\r\n\r\n    function decreaseAllowance(address spender, uint256 subtractedValue) public returns (bool) {\r\n        uint256 currentAllowance = allowance[msg.sender][spender];\r\n        require(currentAllowance >= subtractedValue, \"ERC20: decreased allowance below zero\");\r\n        unchecked {\r\n            allowance[msg.sender][spender] = currentAllowance - subtractedValue;\r\n        }\r\n        emit Approval(msg.sender, spender, allowance[msg.sender][spender]);\r\n        return true;\r\n    }\r\n}\r\n",
  "sourcePath": "C:\\Users\\matez\\OneDrive\\Desktop\\Fade\\contracts\\FadeToken.sol",
  "compiler": {
    "name": "solc",
    "version": "0.8.19+commit.7dd6d404.Emscripten.clang"
  },
  "schemaVersion": "3.4.13",
  "updatedAt": "2023-04-20T04:09:42.703Z",
  "devdoc": {
    "kind": "dev",
    "methods": {},
    "version": 1
  },
  "userdoc": {
    "kind": "user",
    "methods": {},
    "version": 1
  }
}